:100000000C9464080C94A8080C94A8080C94A808F4
:100010000C94A8080C94A8080C94A8080C94A808A0
:100020000C94A8080C94A8080C9469100C943B112B
:100030000C94F9210C94A8080C94A8080C94A80816
:100040000C94A8080C94BB2E0C94A8080C94A80837
:100050000C94A8080C9460220C94A8080C94A8088E
:100060000C94A8080C94A8080C94A8080C94A80850
:100070000C94A8080C94A8080C94A8080C94A80840
:100080000C94A8080C94A8080C94A8080C94A80830
:100090000C94A8080C94A8080C94A8080C94A80820
:1000A0000C94A8080C94A8080C94A808A011C211DC
:1000B000AD12C211AD1204122712AD127C128F12B2
:1000C0009C159C15CA15CA151F165B16C018C018BA
:1000D0007316C0186A176A1726183A18C018AE188F
:1000E000702B982B9929812C812C252B812C812CEC
:1000F000C42B812CD72B4C2C812C812C812C812C36
:10010000212C082C812CF12B812CB12B812C812CC2
:100110007B2C7B2C7B2C7B2C7B2C7B2C7B2C7B2CA7
:100120007B2C792C812C792C812C812C812C812C7D
:10013000812C812C812C812C812C812C812C792C5F
:10014000812C812C252B062B7D2C7D2C7D2C7D2C30
:100150007D2C7D2C7D2C7D2C7D2C7D2C7D2C7D2C57
:100160005E2C812C842B00D200D100D029C0C12A62
:1001700053C2C3575F6061565C5D5E55595A5B540C
:100180002E6263580A002530313662003A2000257D
:10019000303258000A722F63203031323334353612
:1001A0003738394142434445460A000A0025303277
:1001B0005800626F756E6365213A2000001080FF61
:1001C000002300200020002000205B735D004B65B1
:1001D00079626F6172642073746172742E0A0055C3
:1001E000534220636F6E666967757265642E0A00FC
:1001F0005B575D005B535D005B525D005B445D00DF
:100200005B435D000C034700480050006100640040
:10021000000012036700650065006B006800610064
:1002200063006B0000000403090409028D0005014E
:1002300000A032090400000103010100092111019D
:100240000001223F000705810308000A090401009C
:100250000103010200092111010001224D000705DF
:10026000820308000A0904020001030000000921BA
:10027000110100012236000705830308000A090462
:1002800003000203000000092111010001222000E7
:100290000705840320000107050403200001090469
:1002A00004000103000000092111010001223900AE
:1002B000070585031000011201100100000008ED80
:1002C000FE101002000102000105010906A101054E
:1002D0000719E029E7150025019508750181020538
:1002E000081901290595057501910295017503917C
:1002F00001050719002977150025019578750181F9
:1003000002C00631FF0974A1010975150025FF958A
:1003100020750881020976150025FF952075089142
:1003200002C005010980A101850216010026B7005F
:100330001A01002AB700751095018100C0050C094B
:1003400001A1018503160100269C021A01002A9CC6
:1003500002751095018100C005010902A101090182
:10036000A10005091901290515002501950575014B
:10037000810295017503810105010930093115815B
:10038000257F95027508810609381581257F95011D
:1003900075088106050C0A38021581257F950175BF
:1003A000088106C0C005010906A101050719E02959
:1003B000E7150025019508750181029501750881F1
:1003C0000105081901290595057501910295017529
:1003D0000391010507190029FF150025FF950675F2
:1003E000088100C00A002530325820006B65796210
:1003F0006F6172645F7265706F72743A20000A00F8
:1004000025303258006B6579626F6172645F736585
:10041000745F6C65643A200064656C5F6B65795F3E
:100420006269743A2063616E27742064656C3A20B7
:10043000253032580A006164645F6B65795F6269D8
:10044000743A2063616E2774206164643A20253019
:1004500032580A00646F6E652E0A00626F6F676D16
:1004600061676963207363616E3A202E2E2E20002F
:10047000290A002575002F002575005D28002564D8
:100480000020002564002000256400200025640071
:100490007C0025303258006D6F7573656B6579206F
:1004A0005B62746E7C782079207620685D287265A6
:1004B000702F61636C293A205B000A002575006D7E
:1004C0006B5F776865656C5F74696D655F746F5F9E
:1004D0006D6178203D20000A002575006D6B5F7707
:1004E0006865656C5F6D61785F7370656564203DFC
:1004F00020000A002575006D6B5F74696D655F747F
:100500006F5F6D6178203D20000A002575006D6BDE
:100510005F6D61785F7370656564203D20000A003F
:100520002575006D6B5F696E74657276616C203D38
:1005300020000A002575006D6B5F64656C61792091
:100540003D20000A002575006D6B5F776865656C5E
:100550005F74696D655F746F5F6D6178203D200029
:100560000A002575006D6B5F776865656C5F6D616E
:10057000785F7370656564203D20000A0025750072
:100580006D6B5F74696D655F746F5F6D6178203D41
:1005900020000A002575006D6B5F6D61785F7370D8
:1005A000656564203D20000A002575006D6B5F695C
:1005B0006E74657276616C203D20000A002575001E
:1005C0006D6B5F64656C6179203D20000A002575C4
:1005D00000363A206D6B5F776865656C5F74696D96
:1005E000655F746F5F6D61783A20000A00257500C1
:1005F000353A206D6B5F776865656C5F6D61785F1C
:1006000073706565643A20000A00257500343A204D
:100610006D6B5F74696D655F746F5F6D61783A20B3
:10062000000A00257500333A206D6B5F6D61785FBD
:1006300073706565643A20000A00257500323A201F
:100640006D6B5F696E74657276616C286D73293AA3
:1006500020000A00257500313A206D6B5F64656CDF
:100660006179282A31306D73293A20000A0A2D2D2C
:100670002D2D2D204D6F7573656B6579205061723E
:10068000616D6574657273202D2D2D2D2D0A003E30
:1006900020002575004D003F007365742064656679
:1006A00061756C742076616C7565732E0A000A00A2
:1006B00025750073656C6563746564207061726193
:1006C0006D657465723A2000433E20000A517569D9
:1006D00074204D6F7573656B657920436F6E736F12
:1006E0006C650A0053656520687474703A2F2F6535
:1006F0006E2E77696B6970656469612E6F72672F02
:1007000077696B692F4D6F7573655F6B6579730AD8
:10071000000A002575002C20776865656C3D002572
:10072000750077686572652064656C74613A206352
:100730007572736F723D000A7370656564203D20A9
:1007400064656C7461202A206D61785F73706565E3
:1007500064202A2028726570656174202F207469D6
:100760006D655F746F5F6D6178290A007067646FF3
:10077000776E3A09646563726561736520706172B2
:10078000616D6574657273282D3130290A007067B8
:1007900075703A09696E6372656173652070617284
:1007A000616D6574657273282B3130290A00646F9E
:1007B000776E3A0964656372656173652070617272
:1007C000616D6574657273282D31290A0075703A60
:1007D00009696E63726561736520706172616D6530
:1007E00074657273282B31290A00643A09736574A1
:1007F0002064656661756C742076616C7565730A3A
:1008000000703A097072696E7420706172616D6572
:10081000746572730A00363A0973656C65637420F7
:100820006D6B5F776865656C5F74696D655F746F2C
:100830005F6D61780A00353A0973656C65637420F1
:100840006D6B5F776865656C5F6D61785F73706510
:1008500065640A00343A0973656C656374206D6BD6
:100860005F74696D655F746F5F6D61780A00333A1C
:100870000973656C656374206D6B5F6D61785F7380
:10088000706565640A00323A0973656C65637420AB
:100890006D6B5F696E74657276616C286D73290A81
:1008A00000313A0973656C656374206D6B5F646534
:1008B0006C6179282A31306D73290A004553432F22
:1008C000713A09717569740A000A0A2D2D2D2D2DB2
:1008D000204D6F7573656B657920506172616D6530
:1008E000746572732048656C70202D2D2D2D2D0A96
:1008F000003F004D303E000A456E746572204D6F1A
:100900007573656B657920436F6E736F6C650A0054
:100910000A5175697420436F6E736F6C65204D6F5B
:1009200064650A00433E20000A0025750020746FAC
:1009300020002575007377697463685F646566617C
:10094000756C745F6C617965723A20006D3A096D5F
:100950006F7573656B65790A004553432F713A09CA
:10096000717569740A000A0A2D2D2D2D2D20436FF3
:100970006E736F6C652048656C70202D2D2D2D2DAC
:100980000A00506175733A096A756D7020746F20A2
:10099000626F6F746C6F616465720A00436170739B
:1009A0003A094C6F636B204B6579626F6172642802
:1009B0004368696C642050726F6F66290A00505357
:1009C00063723A09706F77657220646F776E2F7269
:1009D000656D6F74652077616B652D75700A0034E5
:1009E0002F46343A0973776974636820746F204C1A
:1009F0006179657234200A00332F46333A097377E0
:100A00006974636820746F204C6179657233200AC1
:100A100000322F46323A0973776974636820746F25
:100A2000204C6179657232200A00312F46313A0933
:100A300073776974636820746F204C6179657231D3
:100A4000200A00302F4631303A09737769746368A1
:100A500020746F204C6179657230200A006E3A096B
:100A6000746F67676C65204E4B524F0A00653A09F8
:100A70007072696E7420656570726F6D20636F6E41
:100A80006669670A00733A097072696E742073743C
:100A9000617475730A00743A097072696E74207417
:100AA000696D657220636F756E740A00763A09701D
:100AB00072696E7420646576696365207665727309
:100AC000696F6E202620696E666F0A006D3A0974A0
:100AD0006F67676C65206D6F7573652064656275FF
:100AE000670A006B3A09746F67676C65206B6579FC
:100AF000626F6172642064656275670A00783A0902
:100B0000746F67676C65206D6174726978206465C5
:100B10006275670A00643A09746F67676C652064E0
:100B20006562756720656E61626C650A00633A09EB
:100B3000656E74657220636F6E736F6C65206D6F88
:100B400064650A000A0A2D2D2D2D2D20436F6D6D31
:100B5000616E642048656C70202D2D2D2D2D0A00AE
:100B60000A002575002E6C6576656C3A20000A0037
:100B70002575002E656E61626C653A20000A0025BD
:100B8000303258006261636B6C696768745F636FD1
:100B90006E6669672E7261773A20000A002575003B
:100BA0002E6E6B726F3A20000A002575002E737747
:100BB00061705F6261636B736C6173685F626163D4
:100BC0006B73706163653A20000A002575002E730F
:100BD0007761705F67726176655F6573633A200065
:100BE0000A002575002E6E6F5F6775693A20000A4E
:100BF000002575002E737761705F72616C745F728F
:100C00006775693A20000A002575002E73776170B8
:100C10005F6C616C745F6C6775693A20000A00252F
:100C200075002E636170736C6F636B5F746F5F63CD
:100C30006F6E74726F6C3A20000A002575002E7377
:100C40007761705F636F6E74726F6C5F63617073F6
:100C50006C6F636B3A20000A0025303258006B65D8
:100C6000796D61705F636F6E6669672E7261773A46
:100C700020000A002575002E6D6F7573653A2000FF
:100C80000A002575002E6B6579626F6172643A20E7
:100C9000000A002575002E6D61747269783A200093
:100CA0000A002575002E656E61626C653A20000AA7
:100CB00000253032580064656275675F636F6E6649
:100CC00069672E7261773A20000A00257500646515
:100CD0006661756C745F6C617965723A20003F00E3
:100CE0004E4B524F3A2064697361626C65640A002E
:100CF0004E4B524F3A20656E61626C65640A006B20
:100D00006579626F6172645F69646C653A20255829
:100D10000A006B6579626F6172645F70726F746FE5
:100D2000636F6C3A2025580A00686F73745F6B65B7
:100D300079626F6172645F6C65647328293A20255B
:100D4000580A000A0A2D2D2D2D2D2053746174751B
:100D500073202D2D2D2D2D0A0074696D65725F6332
:100D60006F756E743A202530346C580A004743433F
:100D70003A20342E382E31204156522D4C494243D0
:100D80003A20312E382E3073766E204156525F4114
:100D90005243483A20617672350A004F5054494F09
:100DA0004E533A204C55464120424F4F544D4147F7
:100DB0004943204D4F5553454B45592045585452B2
:100DC000414B455920434F4E534F4C4520434F4DC7
:100DD0004D414E44204E4B524F20364B524F204CEB
:100DE00045444D4150204C45444D41505F494E5F74
:100DF000454550524F4D204241434B4C4947485482
:100E000020534F465450574D5F4C45442042524565
:100E1000415448494E475F4C454420343039360AE6
:100E2000004255494C443A20756E6B6E6F776E20C8
:100E30002831313A35373A3134204D617220323120
:100E40002032303136290A005649443A203078465B
:100E5000454544286765656B6861636B2920504987
:100E6000443A203078313031302847485061642985
:100E7000205645523A203078303030320A0044450E
:100E800053433A20742E6D2E6B2E206B6579626F62
:100E9000617264206669726D7761726520666F7237
:100EA0002047485061640A000A0A2D2D2D2D2D205F
:100EB00056657273696F6E202D2D2D2D2D0A000A37
:100EC00044454255473A206D6F75736520646973D8
:100ED00061626C65642E0A000A44454255473A2017
:100EE0006D6F75736520656E61626C65642E0A00B6
:100EF0000A44454255473A206B6579626F617264D6
:100F00002064697361626C65642E0A000A4445427C
:100F100055473A206B6579626F61726420656E6136
:100F2000626C65642E0A000A44454255473A206DBA
:100F300061747269782064697361626C65642E0AF9
:100F4000000A44454255473A206D61747269782021
:100F5000656E61626C65642E0A000A44454255471D
:100F60003A20656E61626C65642E0A000A4445424F
:100F700055473A2064697361626C65642E0A006E9D
:100F80006F7420737570706F727465642E0A000A36
:100F90000A4A756D7020746F20626F6F746C6F6198
:100FA0006465722E2E2E2000433E20000A456E748A
:100FB000657220436F6E736F6C65204D6F64650AB8
:100FC00000556E6C6F636B65642E0A004C6F636B2B
:100FD00065642E0A006565636F6E6669673A0A008C
:100FE00000000000000000000000010101020202F8
:100FF0000303040405050606070808090A0B0B0C81
:101000000D0E0F10111213151617191A1B1D1E2085
:1010100022232527292B2D2F313335383A3D3F42C6
:1010200044474A4D505356595C5F6266696C707410
:10103000777B7E82868A8E9195999DA1A5A9ADB078
:10104000B4B8BCC0C3C7CBCED2D5D8DBDFE2E4E7AF
:10105000EAECEFF1F3F5F7F8FAFBFCFDFEFFFFFF1A
:101060006261636B6C6967687420737465703A20A1
:1010700025750A006261636B6C6967687420746F20
:1010800067676C653A2025750A006261636B6C695D
:1010900067687420637573746F6D2064656372652F
:1010A0006173653A2025750A006261636B6C69673C
:1010B000687420637573746F6D20696E6372656107
:1010C00073653A2025750A0011241FBECFEFDAE0C0
:1010D000DEBFCDBF04B603FE24C080910F02909105
:1010E0001002A0911102B09112028730904BA740DC
:1010F000B04BB9F410920F0210921002109211022C
:101100001092120214BE84B7877F84BF88E10FB6A5
:10111000F89480936000109260000FBEE0E0F8E366
:10112000099511E0A0E0B1E0EEEBF8E602C0059011
:101130000D92A833B107D9F722E0A8E3B1E001C0CE
:101140001D92AF30B207E1F70E94A10D0C945D34FF
:101150000C940000FF93EF93E0913801F091390176
:10116000309709F00995EF91FF910895FC01859161
:10117000803011F0EFDFFBCF0895FF27E0E230E28F
:1011800047FF0CC0419597FF09C0EDE2609570954F
:1011900080959095611D711D811D911D27FF02C0D5
:1011A000219530E350E2AA27660F771F881F991F09
:1011B000AA1FA41710F0A41B63955A95A9F7AA308B
:1011C00008F0A95FA05DAF93F395611571058105E6
:1011D000910541F7ED3211F4EF93F395F21718F4FE
:1011E0003F93F395FBCF8F91B5DFFA95E1F7089523
:1011F000E991F9918591803021F0853219F0AADFCB
:10120000F9CF089520E0E89455915532C1F3503359
:1012100011F4689455915A3348F4505390F3220FC7
:10122000022E220F220F200D250FF4CF0EF4219550
:1012300089919991533619F3533729F1533559F15F
:10124000BC0188279927E8945C3621F4899199910B
:1012500068945591543639F446EF7EF077FF0DC00F
:101260008FEF9FEF0AC055374AE039F0583540E11B
:1012700021F0523642E009F00895FF93EF937DDFAD
:10128000EF91FF91B7CFFF93EF93FC0181918030F5
:10129000B9F360DFFBCFFF93EF9368DFF1CFDF930C
:1012A000CF93CDB7DEB72596A3DFCF91DF91089519
:1012B00008950895E72FF0E096E0899FE00DF11D75
:1012C0001124EE0FFF1FEE0FFF1FE60FF11DE45973
:1012D000FE4F84910895E82FF0E0EE0FFF1FEA51D2
:1012E000F0408591949108953E9846988AB1807F08
:1012F0008AB98BB1807F8BB927982F98089580E8A1
:1013000085BF85BF0E9474098AB18F728AB98BB17B
:10131000806D8BB924982C9AE0E4F1E0AAE3B1E067
:1013200011921D9281E0E634F807D1F70895DF921B
:10133000EF92FF920F931F93CF93DF93CAE3D1E015
:1013400010E001E085E0D82E9DEAE92E91E0F92E2B
:10135000133099F028F4113051F0123059F004C0D4
:10136000143071F0153079F03E9A46980EC0539AB9
:101370005B980BC0529A5A9808C0519A599805C068
:10138000509A589802C0279A2F9880EA8A95F1F7C8
:1013900099B19295917090274E9B02C080E001C058
:1013A00082E0982B89B18095881F8827881F880F35
:1013B000880F982B1C9B02C080E001C088E0982B0E
:1013C0008881891739F1988380910001882301F180
:1013D0008091BD0180FF04C082EB91E00E94B608BD
:1013E0008091BD0180FF0CC0809100011F928F93FE
:1013F000FF92EF920E944F090F900F900F900F9065
:101400008091BD0180FF04C08BEA91E00E94B60884
:10141000D09200010E9474091F5F2196163009F0D6
:1014200097CF809100018823B1F081508093000113
:10143000882339F08FE99FE00197F1F700C00000A1
:101440000AC0A0E4B1E0EAE3F1E081918D9391E07C
:10145000E034F907D1F781E0DF91CF911F910F912F
:10146000FF90EF90DF900895E82FF0E0E05CFE4FF2
:10147000208130E081E090E002C0880F991F6A95DA
:10148000E2F72823392381E0232B09F480E0089533
:10149000E82FF0E0E05CFE4F80810895CF92DF926C
:1014A000EF92FF920F931F93CF93DF9384E991E024
:1014B0000E94B60820E4E22E21E0F22EC0E0D0E047
:1014C0003FE8C32E31E0D32E06E811E0DF93CF933F
:1014D000DF92CF920E944F098CE891E00E94B608FB
:1014E000F70181917F0190E00E949E219F938F934D
:1014F0001F930F930E944F0984E891E00E94B60861
:1015000021968DB79EB708960FB6F8949EBF0FBE72
:101510008DBFC630D105D1F6DF91CF911F910F91CC
:10152000FF90EF90DF90CF900895CF93C82F8093D6
:101530004601873090F48430F8F48130A8F10E949D
:101540001B2E0E94892E0E94B52EEC2FF0E0E45451
:10155000FE4F8491CF910C94392E8730C1F08830A2
:1015600019F50E941B2E0E94832E0E94B52E81E049
:101570000E949E2E82E015C00E941B2E0E94AF2E5C
:101580000E94892E86E08C1BCF910C94B82E0E946D
:101590001B2E0E94832E0E94B52E80E00E949E2E5C
:1015A00084E0CF910C94AC2E0E94892E0E94B52E1F
:1015B000CF910C94252E1F93CF93DF9300D000D0B2
:1015C0001F92CDB7DEB7162F80914601873029F4E0
:1015D000662319F080E20E94722E809146018830C5
:1015E00069F4112359F080E20F900F900F900F9043
:1015F0000F90DF91CF911F910C94582E0F900F9068
:101600000F900F900F90DF91CF911F910895E82FC9
:10161000F0E0EE0FFF1FE054FE4F85919491089586
:10162000229A2A9A80B3806E80BB81B3806E81BB80
:10163000259A2D980895823079F028F4882341F076
:10164000813041F00895833049F0843049F00895A5
:101650002A9808958F9808958E9808958D980895E2
:101660002D9A0895823079F028F4882341F0813052
:1016700041F00895833049F0843049F008952A9A62
:1016800008958F9A08958E9A08958D9A08952D98A9
:10169000089580915801089590910502943009F0C1
:1016A0004DC09091E9009F702091EC0020FF02C096
:1016B00020E801C020E0292B94E09093E90090916C
:1016C000EB0090FF38C09091EE0097FF34C09091EE
:1016D0004701992321F09091E80095FF2CC01092CA
:1016E000470196E03091E80035FD15C030910502C4
:1016F000343009F53091EB0035FD1DC0915021F4D7
:1017000081E08093470117C0EFE9FFE03197F1F7DF
:1017100000C00000E7CF8093F1008091E80085FDD4
:1017200005C08091E8008E778093E8002F702093A9
:10173000E90080E008952F702093E9008FEF08956D
:10174000CF93DF9300D01F92CDB7DEB72091050273
:10175000243019F523E029839B838A832093E900B1
:101760008FEF9091E800815095FD06C095ED9A9518
:10177000F1F700008111F5CF8091E80085FF0DC0E1
:1017800040E050E063E070E0CE0101960E945C0E04
:101790008091E8008E778093E8000F900F900F9073
:1017A000DF91CF910895CF93DF9300D01F92CDB7F3
:1017B000DEB720910502243021F522E029839B83A6
:1017C0008A8383E08093E9008FEF9091E800815055
:1017D00095FD06C095ED9A95F1F700008111F5CFC2
:1017E0008091E80085FF0DC040E050E063E070E0CC
:1017F000CE0101960E945C0E8091E8008E77809366
:10180000E8000F900F900F90DF91CF9108952091F5
:1018100005022430F1F422E02093E9002FEF30910B
:10182000E800215035FD06C035ED3A95F1F700008E
:101830002111F5CF2091E80025FF0BC040E050E0DA
:1018400065E070E00E945C0E8091E8008E778093E6
:10185000E8000895CF93DF93EC0180910502843076
:1018600009F043C080910C018823C1F085E080938A
:10187000E9008FEF9091E800815095FD06C095E159
:101880009A95F1F700008111F5CF8091E80085FF6E
:101890002CC040E050E060E170E017C081E0809330
:1018A000E9008FEF9091E800815095FD06C095ED1D
:1018B0009A95F1F700008111F5CF8091E80085FF3E
:1018C00014C040E050E068E070E0CE010E945C0E81
:1018D0008091E8008E778093E80080E1FE01A8E423
:1018E000B1E001900D928A95E1F7DF91CF910895D3
:1018F00080E092E00E94B60880910402811109C044
:101900000E94EE0F0E944B108091E2008460809351
:10191000E20008958CEF91E00E94B6081092040254
:10192000089588EF91E00C94B60884EF91E00E944E
:10193000B6080C94590980EF91E00E94B6080C9407
:10194000F52180910502843049F58091E9008F707E
:101950009091EC0090FF02C090E801C090E0982BBD
:1019600084E08093E9008091EB0080FF14C08091B7
:10197000EE0087FF10C08091E80085FF03C0109241
:10198000F100F9CF8091E80080FF05C08091E80068
:101990008E778093E8009F709093E900089542E06D
:1019A00061EC81E00E94680F42E061EC82E00E94FD
:1019B000680F42E061EC83E00E94680F46E261EC50
:1019C00084E00E94680F42E161EC85E00C94680FAE
:1019D00080910702833009F455C030F4813071F0F2
:1019E000823009F495C008958A3009F481C08B30A3
:1019F00009F460C0893009F0A3C020C080910602BC
:101A0000813A09F09DC08091E800877F8093E800CB
:101A100080910A0290910B02892B21F060E080E016
:101A200090E003C060E188E491E070E00E94A50EC0
:101A30008091E8008B778093E800089580910602FA
:101A4000813209F07DC080910A0290910B020097CB
:101A500019F0049709F074C08091E800877F8093A3
:101A6000E8008091E80082FD05C0809105028111A7
:101A7000F8CF66C08091F100809358018091E80012
:101A80008B775AC080910602813A09F059C0809143
:101A90000A0290910B02892B09F052C08091E80054
:101AA000877F8093E8008091E80080FFFCCF8091E1
:101AB0000B013DC080910602813209F041C0809146
:101AC0000A0290910B02892BD9F58091E800877F5B
:101AD0008093E8000E949D0F9091080281E091118F
:101AE00001C080E080930B0180930C010C94E118FD
:101AF00080910602813221F58091E800877F8093F2
:101B0000E8000E949D0F8091090280935901089579
:101B100080910602813AA1F48091E800877F80934A
:101B2000E8008091E80080FFFCCF8091590180930C
:101B3000F1008091E8008E778093E8000C949D0F6F
:101B4000089584B7877F84BF88E10FB6F8948093A7
:101B50006000109260000FBE90E080E80FB6F8942D
:101B600080936100909361000FBE0E94EE0F0E946F
:101B70004B108091E20084608093E2008CE49BE053
:101B80000E9434217894809105028430E1F78FED32
:101B900091E00E94B6080E94571381E091E00E94F4
:101BA000C5128EEC91E00E94B60880910502853046
:101BB00089F48AEC91E00E94B6080E94B8218091D5
:101BC0000302882391F30E94E021882371F30E948D
:101BD000460EEBCF0E948D13E8CF292F33272330F9
:101BE0003105A9F06CF42130310509F442C02230EE
:101BF000310509F043C08DE890E02AE232E042C0AE
:101C000021323105C9F02232310519F137C0992747
:101C10008130910541F08230910541F0892B71F5B9
:101C2000E6E2F2E005C0E2E1F2E002C0E4E0F2E068
:101C3000849190E09F0126C0653000F5E62FF0E02A
:101C4000EE0FFF1FEC5DFE4F2081318189E090E0B7
:101C500019C0653098F4E62FF0E0DF01AA0FBB1F32
:101C6000A65EBE4F2D913C91EB5EFE4F808190E0D1
:101C700009C082E190E027EB32E004C080E090E010
:101C800020E030E0FA0131832083089580E189BDAE
:101C900082E189BD09B400FEFDCF8091D8008F7D1F
:101CA0008093D8008091E00082608093E000809172
:101CB000E00081FDFCCF0895CF92DF92EF92FF927A
:101CC0000F931F93CF93DF937C018B01EA010E9456
:101CD000BE0F811131C0209731F088819981081B96
:101CE000190BE80EF91EC12CD12C0115110519F1A3
:101CF0008091E80085FD14C08091E8008E77809384
:101D0000E800209741F0888199818C0D9D1D998371
:101D1000888385E011C00E94BE0F882331F30CC078
:101D2000F70181917F018093F10001501109FFEFCC
:101D3000CF1ADF0ADACF80E0DF91CF911F910F91A8
:101D4000FF90EF90DF90CF90089520910C0230919A
:101D50000D022617370748F06115710539F42091F7
:101D6000E8002E772093E80001C0B901FC0120E0D3
:101D700061157105B9F180910502882309F440C00D
:101D8000853009F43FC08091E80083FD3DC080911B
:101D9000E80082FF06C08091E80082FF26C080E054
:101DA00008958091E80080FFE3CF2091F3008091B7
:101DB000F20090E0922B6115710551F08830910589
:101DC00038F421912093F100615071090196F3CF0D
:101DD00021E0089709F020E08091E8008E77809359
:101DE000E800C6CF2111C7CFD6CF80910502882346
:101DF00039F0853039F08091E80083FFCCCF04C002
:101E000082E0089583E0089581E0089520910C0216
:101E100030910D022617370748F06115710539F426
:101E20002091E8002E772093E80001C0B901FC0161
:101E300020E061157105C1F180910502882309F444
:101E400041C0853009F440C08091E80083FD3EC068
:101E50008091E80082FF06C08091E80082FF27C0E1
:101E600080E008958091E80080FFE3CF2091F300A7
:101E70008091F20090E0922B6115710559F0883045
:101E8000910540F424912093F1003196615071093D
:101E90000196F2CF21E0089709F020E08091E80058
:101EA0008E778093E800C5CF2111C6CFD5CF809122
:101EB0000502882339F0853039F08091E80083FFEE
:101EC000CBCF04C082E0089583E0089581E00895B7
:101ED000982F973058F59093E900981739F0709142
:101EE000EC002091ED005091F00003C0242F762FDC
:101EF00050E021FF19C03091EB003E7F3093EB00A2
:101F00003091ED003D7F3093ED003091EB0031607A
:101F10003093EB007093EC002093ED005093F000B1
:101F20002091EE0027FF07C09F5FD3CF8F70809373
:101F3000E90081E0089580E008958091060287FD20
:101F400005C08091E80080FF0EC012C08091E800BB
:101F500082FD05C0809105028111F8CF089580911E
:101F6000E8008B7708C0809105028111EACF0895BF
:101F70008091E8008E778093E80008958091E400D6
:101F80009091E50045E62091EC0020FF21C02091D2
:101F9000E80020FD21C020910502222389F0253090
:101FA00089F02091EB0025FD0FC02091E4003091D5
:101FB000E5002817390739F3415041F0C901E3CF53
:101FC00082E0089583E0089581E0089584E0089513
:101FD0002091E80022FFDFCF80E008950E945C108E
:101FE0000E946410E0EEF0E0808181608083E8ED83
:101FF000F0E080818F77808319BCA7EDB0E08C91F1
:102000008E7F8C9380818F7E80831092040208954E
:102010000F931F93CF93DF930E945C100E94641074
:10202000C8EDD0E088818F77888388818068888335
:1020300088818F7D888319BC10920502109201025D
:10204000109203021092020200EE10E0F80180816B
:102050008B7F808388818160888342E060E080E0BC
:102060000E94680FE1EEF0E080818E7F8083E2EED7
:10207000F0E0808181608083808188608083F801C6
:1020800080818E7F8083888180618883DF91CF917A
:102090001F910F910895E8EDF0E080818F7E80839D
:1020A000E7EDF0E080818160808384E082BF81E0A1
:1020B000809304020C940810E8EDF0E080818E7F9C
:1020C00080831092E20008951092DA001092E100ED
:1020D00008951F920F920FB60F9211242F933F93E2
:1020E0004F935F936F937F938F939F93AF93BF9320
:1020F000EF93FF938091E10082FF0BC08091E2009B
:1021000082FF07C08091E1008B7F8093E1000E94F5
:10211000A10C8091DA0080FF1FC08091D80080FF61
:102120001BC08091DA008E7F8093DA008091D90005
:1021300080FF0DC080E189BD82E189BD09B400FE48
:10214000FDCF81E0809305020E94780C05C019BC88
:10215000109205020E948A0C8091E10080FF19C054
:102160008091E20080FF15C08091E2008E7F809315
:10217000E2008091E20080618093E2008091D800CB
:1021800080628093D80019BC85E0809305020E948C
:10219000950C8091E10084FF30C08091E20084FFC3
:1021A0002CC080E189BD82E189BD09B400FEFDCF6C
:1021B0008091D8008F7D8093D8008091E1008F7E40
:1021C0008093E1008091E2008F7E8093E200809115
:1021D000E20081608093E20080910102882311F087
:1021E00084E007C08091E30087FF02C083E001C064
:1021F00081E0809305020E949B0C8091E10083FFA7
:1022000029C08091E20083FF25C08091E100877F93
:102210008093E10082E08093050210920102809198
:10222000E1008E7F8093E1008091E2008E7F8093B9
:10223000E2008091E20080618093E20042E060E091
:1022400080E00E94680F8091F00088608093F00029
:102250000E94910CFF91EF91BF91AF919F918F914F
:102260007F916F915F914F913F912F910F900FBE92
:102270000F901F9018951F920F920FB60F92112476
:102280002F933F934F935F936F937F938F939F937E
:10229000AF93BF93CF93EF93FF93C091E900CF70BB
:1022A0008091EC001092E9008091F000877F80938C
:1022B000F00078940E9477111092E9008091F0006C
:1022C00088608093F000C093E900FF91EF91CF9177
:1022D000BF91AF919F918F917F916F915F914F913E
:1022E0003F912F910F900FBE0F901F9018951F9345
:1022F000CF93DF93CDB7DEB7AA970FB6F894DEBFC2
:102300000FBECDBFE6E0F2E08091F100819322E0C4
:10231000EE30F207C9F70E94E80C8091E80083FFD5
:102320001CC12091060230910702832F90E08A3071
:10233000910508F012C1FC01EA5AFF4F0C941234C7
:10234000203881F0223809F008C180910A028F708C
:102350008093E9008091EB0085FB882780F910923B
:10236000E90006C0809102029091030291118260FF
:102370009091E800977F9093E8008093F10010928D
:10238000F100C5C0822F8D7F09F0E7C0222319F02C
:10239000223061F0E2C080910802813009F0DDC096
:1023A000333009F080E08093030228C08091080256
:1023B000811124C020910A022F7009F4CEC020930D
:1023C000E9008091EB0080FF19C08091EB00333071
:1023D00011F4806211C080618093EB0081E090E095
:1023E000022E01C0880F0A94EAF78093EA00109247
:1023F000EA008091EB0088608093EB001092E90086
:102400008091E800877F86C02111A7C01091080243
:102410001F778091E3008078812B8093E300809187
:10242000E800877F8093E8000E949D0F8091E8007C
:1024300080FFFCCF8091E30080688093E30011234C
:1024400011F083E001C082E08093050286C020582D
:10245000223008F082C080910802909109028C3DE0
:1024600023E0920779F583E08A838AE289834FB774
:10247000F894DE01139620E03EE051E2E32FF0E015
:1024800050935700E49120FF03C0E295EF703F5F47
:10249000EF708E2F90E0EA3010F0C79601C0C09622
:1024A0008D939D932F5F243149F74FBF8091E800B2
:1024B000877F8093E8006AE270E0CE0101960E9477
:1024C000A50E14C0AE014F5F5F4F60910A020E94DB
:1024D000ED0D009709F441C02091E800277F20937B
:1024E000E800BC0189819A810E94060F8091E80072
:1024F0008B778093E80031C0203879F58091E8002F
:10250000877F8093E800809101028093F1008091A1
:10251000E8008E778093E8000E949D0F1EC0211175
:102520001CC0909108029230C0F48091E800877F2F
:102530008093E800909301020E949D0F8091010218
:10254000811104C08091E30087FF02C084E001C0D4
:1025500081E0809305020E94CF0C8091E80083FF08
:102560000AC08091E800877F8093E8008091EB00AB
:1025700080628093EB00AA960FB6F894DEBF0FBE80
:10258000CDBFDF91CF911F91089590935F0180930C
:102590005E01089580915E0190915F010895E09140
:1025A0005E01F0915F01309721F00190F081E02D04
:1025B000099480E00895FF920F931F93CF93DF93C8
:1025C0008C01E0915E01F0915F01309799F10280FA
:1025D000F381E02D09958091BD0182FF2BC080FF22
:1025E00004C08CEE93E00E94B608E80180E1F82E6A
:1025F00006EE13E08091BD0180FF0BC088811F9221
:102600008F931F930F930E944F090F900F900F907D
:102610000F90FA942196F110EDCF8091BD0180FFCB
:1026200009C084EE93E0DF91CF911F910F91FF904D
:102630000C94B608DF91CF911F910F91FF900895F0
:10264000E0915E01F0915F01309721F00480F58107
:10265000E02D0994089520915C0130915D0182176D
:10266000930771F090935D0180935C01E0915E01AE
:10267000F0915F01309721F00680F781E02D0994F9
:10268000089520915A0130915B018217930771F0F0
:1026900090935B0180935A01E0915E01F0915F019C
:1026A000309721F00084F185E02D099408950E946F
:1026B00022220E947F090E94E8220E9482320E9408
:1026C000FF300E94082E0C94C72FCF93C82F809103
:1026D000BD0182FF1EC080FF04C085E094E00E941F
:1026E000B6088091BD0180FF0CC01F92CF9320E0FF
:1026F00034E03F932F930E944F090F900F900F905B
:102700000F908091BD0180FF04C08EEF93E00E9486
:10271000B6088C2FCF910C946131CF92DF92EF925B
:10272000FF920F931F93CF93DF93CDB7DEB72B9715
:102730000FB6F894DEBF0FBECDBF0E94970931E6F9
:10274000E32E31E0F32E00E010E0C02E802F0E9437
:10275000480AF701D1907F01D826B1F40F5F1F4FCF
:102760000630110591F78FEF89838A831B820E94BF
:102770002B228160782F9D838C8349815A816B81C4
:102780008D810E94291941C09091BD0191FF04C023
:102790008B870E944E0A8B8520E030E04D2D50E063
:1027A000922FBA01022E02C0759567950A94E2F73E
:1027B00060FF25C02E83CF82EE24E394F12C02C06B
:1027C000EE0CFF1C9A95E2F790E08E219F2121E00C
:1027D000892B09F420E028870E942B228160782F22
:1027E0009A8789874E815F8168858A850E94291929
:1027F000F801EF59FE4F80818E25808306C02F5F40
:102800003F4F2430310561F6A9CF0E946F26109109
:1028100060010E94CF121817A1F00E94CF1280937E
:1028200060012B960FB6F894DEBF0FBECDBFDF91CF
:10283000CF911F910F91FF90EF90DF90CF900C946C
:1028400065132B960FB6F894DEBF0FBECDBFDF9198
:10285000CF911F910F91FF90EF90DF90CF9008954F
:10286000CF93C82F882309F4C1C0823859F40E943D
:10287000CF1281FDBBC089E30E94401E0E94E91F68
:1028800089E30CC0833879F40E94CF1280FDAEC07A
:1028900083E50E94401E0E94E91F83E50E94111FEC
:1028A000CF910C94E91F843859F40E94CF1282FD15
:1028B0009DC087E40E94401E0E94E91F87E4EECF7E
:1028C0008CEF8C0F813A48F48C2F0E948D2C811153
:1028D0008DC08C2F0E94401EE3CF80E28C0F883089
:1028E00048F4C77081E001C0880FCA95EAF70E94DA
:1028F000BB1FD6CF8BE58C0F833078F4C53A29F017
:10290000C63A31F482E890E005C081E890E002C068
:1029100083E890E0CF910C942B1388E58C0F8331E2
:1029200008F064C0C83A39F1C93A41F1CA3A49F1EC
:10293000CB3A51F1CC3A59F1CD3A61F1C03B69F152
:10294000CE3A71F1CF3A79F1C13B81F1C23B89F1C5
:10295000C33B91F1C43B99F1C53BA1F1C63BA9F141
:10296000C73BB1F1C83BB9F1C93BC1F1CA3BC9F59D
:102970008AE292E038C082EE90E035C089EE90E0C5
:1029800032C08AEE90E02FC085EB90E02CC086EB41
:1029900090E029C087EB90E026C08CEC90E023C04B
:1029A0008DEC90E020C083E891E01DC08AE891E0C2
:1029B0001AC082E991E017C084E991E014C081E275
:1029C00092E011C083E292E00EC084E292E00BC07C
:1029D00085E292E008C086E292E005C087E292E0DC
:1029E00002C080E090E0CF910C944113CF91089504
:1029F000882309F44BC0823859F40E94CF1281FF1A
:102A000045C089E30E94401E0E94E91F89E30CC073
:102A1000833871F40E94CF1280FF38C083E50E9492
:102A2000401E0E94E91F83E50E94111F0C94E91FBC
:102A3000843859F40E94CF1282FF28C087E40E9494
:102A4000401E0E94E91F87E4EFCF9CEF980F913A58
:102A500058F390E2980F983050F4877091E001C0DD
:102A6000990F8A95EAF7892F0E94C11FDFCF9BE556
:102A7000980F933020F480E090E00C942B13885A48
:102A8000833120F480E090E00C9441130895882372
:102A900021F00E94BB1F0C94E91F0895882321F0A8
:102AA0000E94C11F0C94E91F0895CF92DF92EF920C
:102AB000FF920F931F93CF93DF93CDB7DEB7289785
:102AC0000FB6F894DEBF0FBECDBF8C0185E0F801D4
:102AD000DE01119601900D928A95E1F7F80140818F
:102AE0003181F280258122952F7083819481892BF9
:102AF00031F03F3F31F481E04F3F19F403C081E0F2
:102B000001C080E080FD3CC349833A8389819A817A
:102B10002F830E94FE1D9E8388870E94FD1D0E94B8
:102B2000251D4E81E42FE295EF70F0E0E05AFF4F53
:102B30002F8168850C941234842F807F142F1F708E
:102B4000882311F01295107FFF2059F0112309F40A
:102B500058C2812F68870E94CB1F0E94E91F688599
:102B600050C2862F0E94F814112309F409C3812F43
:102B70000E94D11F28960FB6F894DEBF0FBECDBFBE
:102B8000DF91CF911F910F91FF90EF90DF90CF9049
:102B90000C94E91F342F307F842F8F70303211F066
:102BA0008295807F662319F0613009F12AC0FF20E9
:102BB000A1F0222381F1213071F528960FB6F89407
:102BC000DEBF0FBECDBFDF91CF911F910F91FF9060
:102BD000EF90DF90CF900C94DB1F222319F021306F
:102BE00009F4CEC28E830E94DE1F8E818EC1FF202B
:102BF00021F0263008F0C4C20EC0253008F0C0C253
:102C000084C1FF20C1F0222331F0F801958190FFAB
:102C1000F8C19F70958328960FB6F894DEBF0FBE5B
:102C2000CDBFDF91CF911F910F91FF90EF90DF907B
:102C3000CF900C944715222309F467C1F6C1242FC5
:102C400026952695237030E02115310521F021309D
:102C50003105C9F095C2FF2021F0862F942F937083
:102C600002C080E090E028960FB6F894DEBF0FBE59
:102C7000CDBFDF91CF911F910F91FF90EF90DF902B
:102C8000CF900C942B13FF2021F0862F942F93705C
:102C900002C080E090E028960FB6F894DEBF0FBE29
:102CA000CDBFDF91CF911F910F91FF90EF90DF90FB
:102CB000CF900C944113862FFF2019F00E94F52429
:102CC00002C00E945D2528960FB6F894DEBF0FBEA5
:102CD000CDBFDF91CF911F910F91FF90EF90DF90CB
:102CE000CF900C94E225842F837009F076C0F11008
:102CF00047C2262F229526952770220F220F862F56
:102D00008F70C82ED12CE12CF12C022E04C0CC0CDB
:102D1000DD1CEE1CFF1C0A94D2F764FF10C06FE0AC
:102D200070E080E090E004C0660F771F881F991F55
:102D30002A95D2F7609570958095909503C060E0D4
:102D400070E0CB01242F269526952370422F50E06A
:102D500042305105D1F04330510559F16C297D299C
:102D60008E299F294130510541F128960FB6F894DC
:102D7000DEBF0FBECDBFDF91CF911F910F91FF90AE
:102D8000EF90DF90CF900C943A1D6C297D298E290D
:102D90009F2928960FB6F894DEBF0FBECDBFDF91F6
:102DA000CF911F910F91FF90EF90DF90CF900C94F7
:102DB0004C1D0E943A1DC701B60128960FB6F89423
:102DC000DEBF0FBECDBFDF91CF911F910F91FF905E
:102DD000EF90DF90CF900C94281DFF2019F0842FE6
:102DE000817001C08695882309F4CAC1262F2295D7
:102DF00026952770220F220F862F8F70C82ED12C78
:102E0000E12CF12C022E04C0CC0CDD1CEE1CFF1CAE
:102E10000A94D2F764FF10C06FE070E080E090E0A9
:102E200004C0660F771F881F991F2A95D2F76095F7
:102E300070958095909503C060E070E0CB01242FE1
:102E4000269526952370422F50E042305105D1F04F
:102E50004330510559F16C297D298E299F29413034
:102E6000510541F128960FB6F894DEBF0FBECDBFD5
:102E7000DF91CF911F910F91FF90EF90DF90CF9056
:102E80000C94D91D6C297D298E299F2928960FB66F
:102E9000F894DEBF0FBECDBFDF91CF911F910F9190
:102EA000FF90EF90DF90CF900C94EB1D0E94D91D06
:102EB000C701B60128960FB6F894DEBF0FBECDBF8E
:102EC000DF91CF911F910F91FF90EF90DF90CF9006
:102ED0000C94C71D603F49F118F4603E48F48CC063
:102EE000623F09F451C0E0F1633F09F461C084C05E
:102EF000162F1F70842F8F71FF2021F00E94721DEA
:102F0000812F89CE0E948D1D812F28960FB6F894AF
:102F1000DEBF0FBECDBFDF91CF911F910F91FF900C
:102F2000EF90DF90CF900C944E15FF20A9F0253044
:102F300008F026C1842F8F7128960FB6F894DEBF53
:102F40000FBECDBFDF91CF911F910F91FF90EF90FA
:102F5000DF90CF900C94AC1D263008F011C1EACF61
:102F6000FF20A1F0842F8F7128960FB6F894DEBF52
:102F70000FBECDBFDF91CF911F910F91FF90EF90CA
:102F8000DF90CF900C94721DFF2061F3842F8F711E
:102F900028960FB6F894DEBF0FBECDBFDF91CF915C
:102FA0001F910F91FF90EF90DF90CF900C948D1DAB
:102FB000FF2091F0842F8F7128960FB6F894DEBF12
:102FC0000FBECDBFDF91CF911F910F91FF90EF907A
:102FD000DF90CF900C94631D28960FB6F894DEBF57
:102FE0000FBECDBFDF91CF911F910F91FF90EF905A
:102FF000DF90CF900C945E1DFF20A1F0222309F4F6
:10300000B1CF862F28960FB6F894DEBF0FBECDBF86
:10301000DF91CF911F910F91FF90EF90DF90CF90B4
:103020000C943014222309F4B1CF862F28960FB6C2
:10303000F894DEBF0FBECDBFDF91CF911F910F91EE
:10304000FF90EF90DF90CF900C94F8144F70C80170
:103050000E94302128960FB6F894DEBF0FBECDBF78
:10306000DF91CF911F910F91FF90EF90DF90CF9064
:103070000C948F1CF11084C0662341F0842F8F7054
:10308000843021F0407F862F8F70482B942F9F70C3
:10309000492F50E04230510509F440C0BCF44115BD
:1030A000510561F14130510509F06AC028960FB60B
:1030B000F894DEBF0FBECDBFDF91CF911F910F916E
:1030C000FF90EF90DF90CF900C9404304330510587
:1030D000A9F14430510509F053C0862F28960FB648
:1030E000F894DEBF0FBECDBFDF91CF911F910F913E
:1030F000FF90EF90DF90CF900C949A3028960FB607
:10310000F894DEBF0FBECDBFDF91CF911F910F911D
:10311000FF90EF90DF90CF900C94D82F28960FB6A9
:10312000F894DEBF0FBECDBFDF91CF911F910F91FD
:10313000FF90EF90DF90CF900C94303028960FB630
:10314000F894DEBF0FBECDBFDF91CF911F910F91DD
:10315000FF90EF90DF90CF900C9462304F70C801D9
:1031600028960FB6F894DEBF0FBECDBFDF91CF918A
:103170001F910F91FF90EF90DF90CF900C9433212F
:1031800028960FB6F894DEBF0FBECDBFDF91CF916A
:103190001F910F91FF90EF90DF90CF9008950E94C4
:1031A000D81F0E94AD1F0E94E91F0E9410270E9495
:1031B000E22580E090E00E942B1380E090E00C94E8
:1031C00041130E94C81F0C94CF180E94FE1D292F86
:1031D00022952F7030E02C3031054CF42A30310527
:1031E0006CF4225031092230310590F407C02C30A4
:1031F000310551F02F30310539F00AC0803E10F012
:10320000803F31F481E0089593FB882780F9089589
:1032100080E00895CF93DF9300D000D01F92CDB708
:10322000DEB70F900F900F900F900F90DF91CF911E
:103230000895CF93DF9300D000D000D0CDB7DEB794
:1032400026960FB6F894DEBF0FBECDBFDF91CF91AB
:103250000895CF93DF93CDB7DEB72B970FB6F894D1
:10326000DEBF0FBECDBF4F83588769877A878B87B4
:10327000DE01119686E0FD0111928A95E9F785E05D
:10328000FE01379601900D928A95E1F74F8158859E
:1032900069857A858B850E94DB0A49815A816B8119
:1032A0007C818D819E810E94E21B2B960FB6F89443
:1032B000DEBF0FBECDBFDF91CF9108951F93CF9397
:1032C000DF93C091670116E080916801C81799F0FB
:1032D000D0E01C9FF0011D9FF00D1124E759FE4F17
:1032E0004081518162817381848195810E94191985
:1032F0002196C770E9CFDF91CF911F91089540913A
:10330000990150919A0160919B0170919C0180916B
:103310009D0190919E010C941919CF9380919E016B
:1033200082958F7009F05FC080919B01882309F41A
:103330005AC020916701A091680160919901709134
:103340009A0180919C0190919D0131E06F3F09F0BD
:1033500030E0B32FC6E02A1709F445C0009721F0EA
:103360007F3F21F44B2F03C041E001C040E030E03B
:1033700040FD35C0C29FF001C39FF00D1124E759F5
:10338000FE4F418174132BC04081641328C04281D9
:10339000411125C0438154814817590710F4415009
:1033A0005109481B590B483C5105C8F480919E01B6
:1033B0008F70806180939E0186E0829FF001839FE1
:1033C000F00D1124E259FE4F80818F70806180835F
:1033D00089E991E00E945515CF910C945E192F5FF9
:1033E0003F4F2770B8CFCF910895CF92DF92EF92E1
:1033F000FF920F931F93CF93DF93CDB7DEB7629702
:103400000FB6F894DEBF0FBECDBF8C0185E0F8018A
:10341000DE011D9601900D928A95E1F7D8014C913D
:1034200011965C91119712966C9112971396ED90EC
:10343000FC90149770919901E0919A0120919C0160
:1034400030919D012115310531F0EF3F31F481E0DC
:103450007F3F19F403C081E001C080E0B82FB17054
:10346000CB2E80FD6CC1D0909B01DD2009F4F5C00E
:10347000F0919E01E216F30638F0C701821B930B10
:10348000883C910548F09BC0209530952E0D3F1D3E
:10349000283C310508F093C08F2F807F09F052C07F
:1034A000E51314C0741312C0D62E61110FC0FF7043
:1034B000F061F0939E010E947F1989E991E00E94DA
:1034C000551580919E01F80185836CC1EF2831F07C
:1034D0005F3F31F481E04F3F19F403C081E001C048
:1034E00080E080FD03C081E0862701C080E0F82FE6
:1034F000F170FF2E80FF1CC0809167012091680150
:1035000036E0821709F428C190E0389FF001399F16
:10351000F00D1124E759FE4F7181571306C07081D9
:10352000471303C07281671303C001968770E9CF08
:10353000D62E662309F436C180919E018160809366
:103540009E0153C0E51308C0741306C0611104C086
:10355000D8011596FC93AEC04D875E878D859E85FC
:103560006A8B0E94E5186A89882329F1D62E662382
:1035700011F120919E01822F82958F7090E0029729
:103580000CF460C08091990190919A0198878F8383
:103590001986FB86EA862C87CE01079651C0E5176F
:1035A00031F14D875E878D859E856A8B0E94E51877
:1035B0006A8981112EC0C8010E945515A4C08F2FA1
:1035C000807F69F77E2DF98AE88A89890E940A1925
:1035D00089E991E00E945515E9E9F1E086E0DF0113
:1035E0001D928A95E9F70E947F19D12CDBC07413D4
:1035F000D8CF6111D6CFD8011596FC93C8010E948F
:103600005515E9E9F1E086E0DF011D928A95E9F7B9
:10361000C9C0D62E662379F220919E01822F829511
:103620008F7090E0029774F08091990190919A01C7
:103630009A8389831B82FD82EC822E83CE010196C0
:103640000E94551586E0F801A9E9B1E001900D92BC
:103650008A95E1F70E948D196FC0E216F30628F0F3
:10366000C701821B930B9C0104C0209530952E0D41
:103670003F1D283C310508F052C0D62E662309F4C0
:103680009ACFE5132CC074132AC080919E0180FD4F
:103690001DC0982F92959F70C9F0D80115968C93F4
:1036A00015979F3039F09F5F9295907F8F70892B8F
:1036B00015968C93C8010E94551586E0F801A9E97A
:1036C000B1E001900D928A95E1F736C086E0F801ED
:1036D000A9E9B1E001900D928A95E1F763C04D87A9
:1036E0005E878D859E850E94E518882379F086E0A7
:1036F000F801A9E9B1E001900D928A95E1F70E94E5
:103700008D190E947F19DD24D3944CC080919E01B5
:10371000816080939E01C8010E94551543C07E2D93
:10372000F98AE88A89890E940A19E9E9F1E086E0C4
:10373000DF011D928A95E9F70E947F1933C0662345
:1037400009F439CF4D875E878D859E850E94E518E7
:10375000882309F430CFCBCF4D875E878D859E853A
:103760000E94FE1D292F22952F7030E02230310556
:103770002CF49F7041F0811106C00CC0243031053B
:103780002CF49F7049F4805E883020F0C8010E94BC
:103790005515CF2CDC2C06C0D80115969C91907F36
:1037A00091F7F8CF8D2D62960FB6F894DEBF0FBE5D
:1037B000CDBFDF91CF911F910F91FF90EF90DF90E0
:1037C000CF9008951F93CF93DF93CDB7DEB72C979B
:1037D0000FB6F894DEBF0FBECDBF4F835887698701
:1037E0007A878B879C87CE0107960E94F5198823DC
:1037F000C1F02F8138858A859B85892B31F03F3F29
:1038000011F080E003C02F3FE1F781E0811147C054
:103810004F81588569857A858B859C850E94191909
:103820003EC086E0FE013796DE01119601900D92B2
:103830008A95E1F7FF81E8854A855B854115510549
:1038400031F0EF3F31F481E0FF3F19F403C081E034
:1038500001C080E080FD23C02091680130E0C901F3
:103860000196877099276091670170E08617970726
:10387000F1F1F983EA835D834C8396E0929FD00156
:10388000939FB00D1124A759BE4FFE0131960190B0
:103890000D929A95E1F7809368010E945E1916E0F7
:1038A0008091670190916801891779F1189FC00193
:1038B000112487599E4F0E94F519882331F1E09118
:1038C00067011E9FF0011124E759FE4F408151818D
:1038D00062817381848195810E94191980916701A9
:1038E00090E001968770992780936701D9CF0E9455
:1038F000E1181092680110926701E9E9F1E086E0B1
:10390000DF011D928A95E9F7CACF2C960FB6F8947D
:10391000DEBF0FBECDBFDF91CF911F910895EF9213
:10392000FF920F931F93CF93DF93FC01009709F44D
:103930006DC0F12CEE24E394EF012196849184373D
:1039400040F4843008F053C0813081F0823021F19E
:103950005DC0853709F445C0B0F19CE7980F9037FA
:1039600008F054C08F770E94F81443C08F010E5F97
:103970001F4FFE01849190E2980F983050F48770A9
:10398000FE2D01C0FF0F8A95EAF78F2F0E94CB1FF3
:1039900015C00E94301412C08F010E5F1F4FFE0130
:1039A000849190E2980F983058F48770FE2D01C0F2
:1039B000FF0F8A95EAF78F2F0E94D11FE80119C0E7
:1039C0000E94F814FBCFCF010296FE01C491CC23D4
:1039D00061F0EFE9FFE03197F1F700C00000C1505E
:1039E000F6CFCF010296FE01F490EC0102C00E94D6
:1039F00030148F2D882341F0EFE9FFE03197F1F784
:103A000000C000008150F6CFFE0196CFDF91CF912C
:103A10001F910F91FF90EF9008956093A301709311
:103A2000A4018093A5019093A6010E94AF310C944C
:103A3000CF1860939F017093A0018093A101909390
:103A4000A2010E9407320C94CF1808950C940D1D0A
:103A50000F931F930091A3011091A4012091A50140
:103A60003091A601602B712B822B932B1F910F910C
:103A70000C940D1D0F931F930091A3011091A401AD
:103A80002091A5013091A601602371238223932305
:103A90001F910F910C940D1D0F931F930091A30183
:103AA0001091A4012091A5013091A60160277127F2
:103AB000822793271F910F910C940D1D60E070E0F9
:103AC000CB010C94191D41E050E060E070E004C0AF
:103AD000440F551F661F771F8A95D2F7CB01BA0195
:103AE0000C94191D41E050E060E070E004C0440F08
:103AF000551F661F771F8A95D2F780919F0190917D
:103B0000A001A091A101B091A201482B592B6A2BD1
:103B10007B2BCB01BA010C94191D41E050E060E011
:103B200070E004C0440F551F661F771F8A95D2F7B7
:103B3000409550956095709580919F019091A0015E
:103B4000A091A101B091A201482359236A237B23AC
:103B5000CB01BA010C94191D41E050E060E070E027
:103B600004C0440F551F661F771F8A95D2F78091B6
:103B70009F019091A001A091A101B091A2014827BD
:103B800059276A277B27CB01BA010C94191D0F9383
:103B90001F9300919F011091A0012091A1013091EC
:103BA000A201602B712B822B932B1F910F910C94F0
:103BB000191D0F931F9300919F011091A001209157
:103BC000A1013091A20160237123822393231F91CD
:103BD0000F910C94191D0F931F9300919F01109149
:103BE000A0012091A1013091A201602771278227B5
:103BF00093271F910F910C94191D0895CF92DF9276
:103C0000EF92FF920F931F93CF93DF93EC01C0903D
:103C1000A301D090A401E090A501F090A6018091AD
:103C20009F019091A001A091A101B091A201C82A89
:103C3000D92AEA2AFB2A0FE110E0B701A601002EDB
:103C400004C076956795579547950A94D2F740FF3B
:103C500007C0BE01802F0E94BD208130910539F43C
:103C60000150110950F7BE0180E00E94BD20DF9194
:103C7000CF911F910F91FF90EF90DF90CF9008951B
:103C8000CF92DF92EF92FF920F931F93CF93DF9328
:103C9000F82E80910C01882349F18F2D8695869509
:103CA00086958F3090F4E0910D01F0910E01E80FB0
:103CB000F11D8F2D877021E030E001C0220F8A9521
:103CC000EAF78181822B8183A3C08091BD0180FFAF
:103CD0009FC01F92FF9286E394E09F938F930E9470
:103CE0004F090F900F900F900F9092C0E090BA0183
:103CF0004091B801E0910D01F0910E01442309F4C7
:103D000072C02091B9018E2D3FEF06E010E0A82F80
:103D1000BB27A7FDB095EF01CA0FDB1F9A819F1546
:103D200009F476C03F3F19F4911101C0382FCD013D
:103D30000196C6E0D0E0B8010E94FE338213E7CFBF
:103D40002E1151C03F3F71F4822F992787FD909526
:103D50000196BE010E94FE338093BA014150409308
:103D6000B80141C0832F992787FD90950196BE0128
:103D70000E94FE33EE24E394C6E0D0E0082F112722
:103D800007FD10956F01C00ED11ED60112966C91E1
:103D90006623A1F0432F552747FD5095CF01840F8F
:103DA000951FDC0112966C93D60112961C92CA01E3
:103DB0000196BE010E94FE33382F01C0E394C80172
:103DC0000196BE010E94FE338213D8CF822F99271D
:103DD00087FD90958E199109069666E070E00E9425
:103DE000FE338093B9012091B901332727FD309527
:103DF000E20FF31FF282C901019666E070E00E94B3
:103E0000FE338093B9018091B8018F5F8093B80130
:103E1000DF91CF911F910F91FF90EF90DF90CF90A6
:103E20000895DF92EF92FF920F931F93CF93DF934A
:103E3000482F80910C01882351F1842F8695869517
:103E400086958F3098F4E0910D01F0910E01E80F06
:103E5000F11D477021E030E0042E01C0220F0A94CA
:103E6000EAF720958181282321836FC08091BD01CD
:103E700080FF6BC01F924F9388E194E09F938F93D4
:103E80000E944F090F900F900F900F905EC0E0912D
:103E9000BA01D090B801DD2009F457C0C0910D01DE
:103EA000D0910E010091B901112707FD109586E010
:103EB000E82EF12CF0E0DE01AE0FBF1F9D012E5F5A
:103EC0003F4F12968C91841336C0D9011C92DA941C
:103ED000D092B801D11004C01092BA011092B90169
:103EE0002091B901822F992787FD9095059666E06C
:103EF00070E00E94FE33E817F90739F54091BA01E6
:103F0000E6E0F0E0822F992787FD90950596BF01A6
:103F10000E94FE339C010596BF010E94FE338C0F68
:103F20009D1FDC0112968C91811102C02413EACFEF
:103F30002093B9010AC0CF010196B7010E94FE3358
:103F4000E82F8017910709F0B5CFDF91CF911F912E
:103F50000F91FF90EF90DF90089581E090E0E09165
:103F60000D01F0910E01E80FF91F108201968031CA
:103F70009105A9F708959091BC01982B9093BC01ED
:103F8000089580959091BC0198239093BC01089569
:103F90001092BC0108959091BB01982B9093BB01A6
:103FA000089580959091BB0198239093BB0108954B
:103FB0001092BB0108958093A70108951092A70164
:103FC000089580910C01811103C08091B80108957A
:103FD0000895E0910D01F0910E018091BC01808364
:103FE000E0910D01F0910E0180819091BB01892B30
:103FF00080839091A701992361F0E0910D01F091E8
:104000000E018081892B80830E94E11F8111109213
:10401000A70180910D0190910E010C94DB128D3B54
:1040200060F4883A00F5853AA8F4843088F4813049
:1040300009F05BC081E090E00895803E08F455C02F
:10404000883E30F0803F08F450C090E090650895BD
:1040500090E00895853A09F44BC0863A09F04BC0C8
:1040600082E890E40895883A09F448C0893A09F44E
:1040700048C08A3A09F448C08B3A09F448C08C3ADF
:1040800009F448C08B3B09F448C08C3B09F448C094
:104090008D3A09F448C0803B09F448C08E3A09F4CF
:1040A00048C08F3A09F448C0813B09F448C0823BBC
:1040B00009F448C0833B09F448C0843B09F448C074
:1040C000853B09F448C0863B09F448C0873B09F4A6
:1040D00048C0883B09F448C0893B09F448C08A3B82
:1040E00009F048C08AE296E4089580E090E00895DF
:1040F00081E890E4089583E890E4089582EE94E4E2
:10410000089589EE94E408958AEE94E4089585EB89
:1041100094E4089586EB94E4089583EB94E4089581
:1041200084EB94E4089587EB94E408958CEC94E494
:1041300008958DEC94E4089583E895E408958AE861
:1041400095E4089582E995E4089584E995E4089555
:1041500081E296E4089583E296E4089584E296E489
:10416000089585E296E4089586E296E4089587E24C
:1041700096E4089580E094E408950E945A09803EF0
:10418000A8F4803C00F5813309F45CC038F489322E
:1041900009F452C08A3209F45BC05FC08933B1F0C0
:1041A0008238A1F0853309F441C057C0833E41F104
:1041B00028F4803E99F0823EB9F04FC0863E31F13E
:1041C000873E71F14AC00E946B09089590910002E8
:1041D00090FD02C091FF41C080EE3FC0809100027F
:1041E00080FFFACF89E339C08091000282FF0CC0C2
:1041F0008091000284FF02C080E02FC083EE2DC0BA
:104200008091000282FFF4CF82EE27C080910002ED
:1042100083FF0AC08091000284FDEECF87EE1DC0AF
:104220008091000283FFF6CF86EE17C080910002D6
:1042300085FF06C089E211C08091000285FFFACF98
:1042400085E30BC08091000286FF06C08AE205C0AC
:104250008091000286FFFACF81E30E940F2008952B
:1042600080E090E00895089590933901809338019B
:104270000895CF92DF92EF92FF920F931F936C01FC
:10428000EE24FF24C114D104E104F10421F46B01F4
:104290007C0180E001C080E133272F2D1E2D0D2DE4
:1042A000011511052105310519F0885F68017901B3
:1042B00097018601A4E03695279517950795AA954D
:1042C000D1F7011511052105310519F08C5F680141
:1042D000790197018601F2E03695279517950795A4
:1042E000FA95D1F7011511052105310519F08E5FF9
:1042F00068017901B701A6017695679557954795AD
:10430000452B462B472B09F08F5F1F910F91FF9094
:10431000EF90DF90CF9008958295982F9C7C969592
:104320009695837344E0849F90011124922B892FEA
:104330008A7A86959575990F892B08951F93CF9347
:10434000DF931F92CDB7DEB799830E948C21182F7F
:104350009981892F0E948C21212F30E0322F222732
:10436000A901482BCA010F90DF91CF911F910895A9
:1043700080910502843019F11092BE0120E488E199
:1043800090E00FB6F894A895809360000FBE20933C
:1043900060000E94252E83B7817F846083BF83B72E
:1043A000816083BF7894889583B78E7F83BF88E1CF
:1043B0000FB6F89480936000109260000FBE0895CD
:1043C000CF930E9458090E9497090E945909C0E0A2
:1043D0008C2F0E94480A811105C0CF5FC630C1F7FB
:1043E00080E001C081E0CF9108950E94E1180C9413
:1043F000C72F1F920F920FB60F9211248F939F9386
:10440000AF93BF938091BE01811113C08091BF0112
:104410009091C001A091C101B091C2014196A11D2E
:10442000B11D8093BF019093C001A093C101B093CF
:10443000C201BF91AF919F918F910F900FBE0F90CE
:104440001F90189582E084BD93E095BD9AEF97BDCB
:1044500080936E0008952FB7F8948091BF019091DA
:10446000C001A091C101B091C2012FBF0895CF92A8
:10447000DF92EF92FF920F931F932FB7F894409122
:10448000BF015091C0016091C1017091C2012FBF65
:104490006A017B01EE24FF248C0120E030E0C0168D
:1044A000D106E206F30610F441505109481B590B9E
:1044B000CA011F910F91FF90EF90DF90CF90089568
:1044C0001F920F920FB60F9211248F939F93AF9369
:1044D000BF938091BF019091C001A091C101B091A3
:1044E000C2010196A11DB11D8093BF019093C0012F
:1044F000A093C101B093C201BF91AF919F918F91E1
:104500000F900FBE0F901F9018950E94EE0FF89419
:104510002FEF87EA91E6215080409040E1F700C0FC
:10452000000087E090EBDC0180930F029093100273
:10453000A0931102B09312022CE088E190E00FB634
:10454000F894A895809360000FBE20936000FFCF81
:10455000EF92FF920F931F93CF93DF93E82EF12CEE
:104560008F2D0E94480AC0E0D0E0082F10E098018B
:104570000C2E02C0359527950A94E2F720FD05C060
:104580002196C430D10599F709C06C2F7F2D80E0AA
:104590000E945A09E812F4CF81E005C0F39486E046
:1045A000F812DECF80E0DF91CF911F910F91FF9045
:1045B000EF900895CF93C82F80EC0E94A822882303
:1045C00021F08C2FCF910C94A82280E0CF910895F8
:1045D000CF930E944524811102C00E9420248BE5C4
:1045E00094E00E94B608C5E6C15049F00E949709C0
:1045F0008FE39CE90197F1F700C00000F5CF84E557
:1046000094E00E94B60889E20E94DA22811116C164
:104610008AE20E94DA22882331F00E943F240E941D
:1046200020240E94BE3285E00E94DA2281110E947D
:1046300085220E9450248093BD0187E00E94DA22E7
:10464000882399F18BE10E94DA22882351F090911E
:10465000BD0191FB882780F921E0822780FB91F939
:1046600022C08EE00E94DA22882351F09091BD0191
:1046700092FB882780F921E0822780FB92F913C002
:1046800080E10E94DA229091BD01882341F093FBE2
:10469000882780F921E0822780FB93F904C0892FC5
:1046A000809580FB90F99093BD018091BD010E949F
:1046B00054240E9462248093000280EE0E94DA2239
:1046C000882341F080910002982F909590FB80F90B
:1046D0008093000289E30E94DA22882359F09091A6
:1046E000000291FB882780F921E0822780FB91F965
:1046F0009093000282EE0E94DA22882359F0909172
:10470000000292FB882780F921E0822780FB92F942
:104710009093000286EE0E94DA22882359F090914D
:10472000000293FB882780F921E0822780FB93F920
:104730009093000283EE0E94DA22882359F0909130
:10474000000294FB882780F921E0822780FB94F9FE
:104750009093000285E30E94DA22882359F0909119
:10476000000295FB882780F921E0822780FB95F9DC
:104770009093000281E30E94DA22882359F09091FD
:10478000000296FB882780F921E0822780FB96F9BA
:104790009093000281E10E94DA22882359F09091DF
:1047A000000297FB882780F921E0822780FB97F998
:1047B00090930002809100020E9466248091000282
:1047C00087FB882780F980930C0187E20E94DA2218
:1047D000C82F8EE10E94DA228111C2608FE10E940F
:1047E000DA228111C46080E20E94DA228111C8605D
:1047F00081E20E94DA228111C06182E20E94DA2203
:104800008111C06283E20E94DA228111C06484E2D5
:104810000E94DA22882311F0C06802C0CC2329F05C
:104820008C2F0E945D246C2F03C00E945924682F96
:1048300070E080E090E0CF910C94261DCF91089518
:104840006DEE7EEF80E090E00E94483460E082E010
:1048500090E00E943A3460E083E090E00E943A34B5
:1048600060E084E090E00E943A3460E085E090E00F
:104870000E943A3460E086E090E00C943A346FEFA6
:104880007FEF80E090E00C94483480E090E00E945C
:10489000343421E08D3E9E4F09F020E0822F0895B0
:1048A00082E090E00C942C34682F82E090E00C942D
:1048B0003A3483E090E00C942C34682F83E090E04D
:1048C0000C943A3484E090E00C942C34682F84E00B
:1048D00090E00C943A3486E090E00C942C34682FED
:1048E00086E090E00C943A348091C50180FF0BC0C3
:1048F0006091120185E0689FB0011124759567955C
:10490000759567952AC081FF09C06091120185E005
:10491000689FB0011124759567951FC082FF07C07D
:104920006091120185E0689FB001112416C040918A
:10493000C6014423C9F060911101461788F7209100
:10494000120185E0289F90011124429FC001439FDE
:10495000900D112470E00E94FE336038710540F420
:104960006115710539F002C065E070E0862F089589
:104970008FE7089581E008958091C50180FF08C008
:104980006091100170E0759567957595679521C0E8
:1049900081FF06C06091100170E07595679519C0A0
:1049A00082FF04C06091100170E010C08091C601C8
:1049B0008823C1F060910F018617A0F79091100134
:1049C000989FC001112470E00E94FE336038710589
:1049D00028F46115710521F0862F08958FE7089559
:1049E00081E0089561E070E0F4CF803F21F40E94FF
:1049F0007424819504C0813F29F40E94742480931B
:104A0000C9010895823F21F40E947424819504C055
:104A1000833F29F40E9474248093C8010895893F3C
:104A200019F40E94BC2405C08A3F31F40E94BC24C2
:104A300081958093CA0108958B3F21F40E94BC2484
:104A4000819504C08C3F29F40E94BC248093CB0143
:104A50000895843F21F48091C701816017C0853F8C
:104A600021F48091C701826011C0863F21F48091BA
:104A7000C70184600BC0873F21F48091C701886023
:104A800005C0883F31F48091C70180618093C701E0
:104A900008958D3F21F48091C50181600BC08E3F48
:104AA00021F48091C501826005C08F3F29F4809177
:104AB000C50184608093C5010895803F39F48091D9
:104AC000C90187FF6CC01092C90169C0813F29F4F8
:104AD0008091C9011816BCF362C09091C801823F51
:104AE00029F497FF5CC01092C80159C0833F19F4A4
:104AF0001916CCF354C0893F41F48091CA011816AD
:104B00000CF04DC01092CA014AC08A3F29F480912E
:104B1000CA0187FF44C0F6CF8B3F39F48091CB01A7
:104B200087FF3DC01092CB013AC08C3F29F48091A1
:104B3000CB011816BCF333C0843F21F48091C70128
:104B40008E7F17C0853F21F48091C7018D7F11C0F2
:104B5000863F21F48091C7018B7F0BC0873F21F4F2
:104B60008091C701877F05C0883F31F48091C701DC
:104B70008F7E8093C70113C08D3F21F48091C501C2
:104B80008E7F0BC08E3F21F48091C5018D7F05C0C3
:104B90008F3F29F48091C5018B7F8093C50180915F
:104BA000C80181110EC08091C90181110AC0809194
:104BB000CA01811106C08091CB01811102C01092FF
:104BC000C60108958091BD0183FF7EC087E994E00E
:104BD0000E94B6088091C7011F928F9382E994E0EA
:104BE0009F938F930E944F0980E994E00E94B6083A
:104BF0002091C801822F992787FD90959F932F932D
:104C00008DE894E09F938F930E944F098BE894E086
:104C10000E94B6082091C901822F992787FD90959F
:104C20009F932F9388E894E09F938F930E944F095E
:104C300086E894E00E94B6082091CA01822F992745
:104C400087FD90959F932F9383E894E09F938F9394
:104C50000E944F0981E894E00E94B6082091CB01A0
:104C6000822F992787FD90959F932F938EE794E04D
:104C70009F938F930E944F098BE794E00E94B608A0
:104C80008091C6011F928F9388E794E09F938F9342
:104C90000E944F0986E794E00E94B6088091C50102
:104CA0001F928F9383E794E09F938F930E944F0905
:104CB00080E794E00E94B6088DB79EB74C960FB679
:104CC000F8949EBF0FBE8DBF87EC91E00E94201329
:104CD0000E942B229093C4018093C30108951F93D7
:104CE000CF93DF938091C3019091C4010E9437223A
:104CF0004091C601442321F02091130130E006C009
:104D0000209114015AE0259F9001112482179307E6
:104D100008F482C08091C8011091C901D091CA01E4
:104D2000C091CB01811107C0111105C0D11103C081
:104D3000CC2309F471C04F3F19F04F5F4093C60177
:104D4000181624F40E9474248093C8018091C8012D
:104D500087FF05C00E94742481958093C8011116B5
:104D600024F40E9474248093C9018091C90187FFB3
:104D700005C00E94742481958093C9016091C80187
:104D8000662339F11091C901112319F1772767FDC5
:104D90007095872F972F0E940F3323E333E343E36C
:104DA0005FE30E9473330E94DC326093C801612F7D
:104DB000772767FD7095872F972F0E940F3323E386
:104DC00033E343E35FE30E9473330E94DC3260937A
:104DD000C9011D1624F40E94BC248093CA0180914D
:104DE000CA0187FF05C00E94BC2481958093CA0137
:104DF0001C1624F40E94BC248093CB018091CB012B
:104E000087FF05C00E94BC2481958093CB01DF9170
:104E1000CF911F910C94E225DF91CF911F910895BE
:104E2000E7ECF1E085E0DF011D928A95E9F7109249
:104E3000C6011092C501089586E699E00E94B60861
:104E400089E599E00E94B6088CE499E00C94B608D4
:104E500089EC98E00E94B6088CEB98E00E94B608B6
:104E600081EA98E00E94B60886E898E00E94B608B9
:104E70008EE698E00E94B60884E598E00E94B608A5
:104E800086E398E00E94B60886E198E00E94B608A2
:104E900081E098E00E94B6088AEE97E00E94B6088A
:104EA0008DEC97E00E94B6088EEA97E00E94B60863
:104EB0008EE897E00E94B6088CE697E00E94B6085C
:104EC00087E397E00E94B60882E297E00E94B60866
:104ED0001F9285E08F938FE197E09F938F930E94BD
:104EE0004F0986E197E00E94B6081F9281E08F93F8
:104EF00083E197E09F938F930E944F0981E197E0B0
:104F00000E94B6088DB79EB708960FB6F8949EBF5C
:104F10000FBE8DBF84EE96E00C94B608833009F482
:104F200059C028F4813061F0823079F108958530DC
:104F300009F49AC008F473C0863009F4BAC0089521
:104F400020911401862F90E0820F911D8F3F9105D3
:104F500020F4620F6093140103C08FEF809314015B
:104F600080EC95E00E94B608809114011F928F9307
:104F70008DEB95E09F938F930E944F090F900F90B8
:104F80000F900F908BEB95E0B8C020911301862F06
:104F900090E0820F911D8F3F910520F4620F609386
:104FA000130103C08FEF809313018CEA95E00E94F8
:104FB000B608809113011F928F9389EA95E09F9321
:104FC0008F930E944F090F900F900F900F9087EAD8
:104FD00095E093C020911201862F90E0820F911DE1
:104FE0008F3F910520F4620F6093120103C08FEF91
:104FF0008093120187E995E00E94B6088091120122
:105000001F928F9384E995E09F938F930E944F099D
:105010000F900F900F900F9082E995E06EC0209155
:105020001101862F90E0820F911D8F3F910520F492
:10503000620F6093110103C08FEF8093110180E82C
:1050400095E00E94B608809111011F928F938DE721
:1050500095E09F938F930E944F090F900F900F90B0
:105060000F908BE795E049C020911001862F90E0CA
:10507000820F911D8F3F910520F4620F6093100104
:1050800003C08FEF8093100185E695E00E94B6087B
:10509000809110011F928F9382E695E09F938F93EA
:1050A0000E944F090F900F900F900F9080E695E0AF
:1050B00024C020910F01862F90E0820F911D8F3F19
:1050C000910520F4620F60930F0103C08FEF80936E
:1050D0000F0188E495E00E94B60880910F011F92AD
:1050E0008F9385E495E09F938F930E944F090F90D3
:1050F0000F900F900F9083E495E00C94B6088330E6
:1051000009F44DC028F4813061F0823049F10895EE
:10511000853009F482C008F461C0863009F49CC06F
:10512000089580911401681720F4861B8093140160
:1051300002C01092140187E395E00E94B6088091A6
:1051400014011F928F9384E395E09F938F930E94A5
:105150004F090F900F900F900F9082E395E09AC047
:1051600080911301681720F4861B8093130102C0FD
:105170001092130183E295E00E94B608809113011A
:105180001F928F9380E295E09F938F930E944F0927
:105190000F900F900F900F908EE195E07BC0809163
:1051A0001201681720F4861B8093120102C010922E
:1051B00012018EE095E00E94B608809112011F92C4
:1051C0008F938BE095E09F938F930E944F090F90F0
:1051D0000F900F900F9089E095E05CC080911101D5
:1051E000681720F4861B8093110102C010921101F0
:1051F00087EF94E00E94B608809111011F928F936F
:1052000084EF94E09F938F930E944F090F900F902B
:105210000F900F9082EF94E03DC0809110016817CD
:1052200020F4861B8093100102C0109210018CEDB7
:1052300094E00E94B608809110011F928F9389ED2F
:1052400094E09F938F930E944F090F900F900F90BF
:105250000F9087ED94E01EC080910F01681720F435
:10526000861B80930F0102C010920F018FEB94E018
:105270000E94B60880910F011F928F938CEB94E0EF
:105280009F938F930E944F090F900F900F900F9054
:105290008AEB94E00C94B608CF93C82F85E399E08D
:1052A0000E94B6086091A3017091A4018091A501AC
:1052B0009091A6010E9439211F928F9322E339E039
:1052C0003F932F930E944F098DE299E00E94B60808
:1052D0001F92CF932AE239E03F932F930E944F0908
:1052E00088E299E00E94B60861E070E080E090E01A
:1052F00004C0660F771F881F991FCA95D2F70E94B6
:10530000261D8DB79EB708960FB6F8949EBF0FBEA8
:105310008DBFCF910C94E118CF93482F50E0FA0144
:105320003697E334F10508F0ECC2E059FF4F0C94D6
:10533000123485ED9FE00E94B6088EEC9CE00E943E
:10534000B6080E9459241F928F938BEC9CE09F9388
:105350008F930E944F0989EC9CE00E94B6080E943E
:105360005024C82F86EB9CE00E94B6081F92CF9372
:1053700021EB3CE03F932F930E944F098FEA9CE082
:105380000E94B60885EA9CE00E94B6088C2F8170C6
:105390001F928F9322EA3CE03F932F930E944F0984
:1053A00080EA9CE00E94B60886E99CE00E94B6086C
:1053B000C1FB882780F91F928F9323E93CE03F933C
:1053C0002F930E944F0981E99CE00E94B60885E86E
:1053D0009CE00E94B608C2FB882780F91F928F9339
:1053E00022E83CE03F932F930E944F0980E89CE025
:1053F0000E94B60887E79CE00E94B608C3FBCC2752
:10540000C0F91F92CF9384E79CE09F938F930E94F3
:105410004F0982E79CE00E94B6080E946224C82FD0
:105420008EE59CE00E94B6081F92CF9329E53CE0F0
:105430003F932F930E944F0987E59CE00E94B60896
:105440008EE39CE00E94B6088C2F81701F928F9390
:105450002BE33CE03F932F930E944F098DB79EB7FB
:1054600080960FB6F8949EBF0FBE8DBF89E39CE077
:105470000E94B60882E29CE00E94B608C1FB882721
:1054800080F91F928F932FE13CE03F932F930E946E
:105490004F098DE19CE00E94B6088BE09CE00E94E1
:1054A000B608C2FB882780F91F928F9328E03CE062
:1054B0003F932F930E944F0986E09CE00E94B6081C
:1054C00084EF9BE00E94B608C3FB882780F91F92F7
:1054D0008F9321EF3BE03F932F930E944F098FEE74
:1054E0009BE00E94B60885EE9BE00E94B608C4FBD4
:1054F000882780F91F928F9322EE3BE03F932F93F2
:105500000E944F0980EE9BE00E94B6088EEC9BE063
:105510000E94B608C5FB882780F91F928F932BEC59
:105520003BE03F932F930E944F0989EC9BE00E9440
:10553000B6088DEA9BE00E94B608C6FB882780F972
:105540001F928F932AEA3BE03F932F930E944F09CB
:1055500088EA9BE00E94B60880EA9BE00E94B608B9
:10556000C7FBCC27C0F91F92CF938DE99BE09F9397
:105570008F930E944F098BE99BE00E94B6080E941E
:105580006B24C82F84E89BE00E94B6081F92CF933B
:105590002FE73BE03F932F930E944F098DB79EB7B3
:1055A00080960FB6F8949EBF0FBE8DBF8DE79BE02F
:1055B0000E94B60883E79BE00E94B6088C2F81709A
:1055C0001F928F9320E73BE03F932F930E944F0958
:1055D0008EE69BE00E94B60885E69BE00E94B60836
:1055E000C6951F92CF9382E69BE09F938F930E9474
:1055F0004F0980E69BE00E94B6088DB79EB70896DB
:105600000FB6F8949EBF0FBE8DBF1DC00E94CA1278
:10561000892B79F00E94CA129093CD018093CC011E
:105620000E94E11880E090E00E94C5128CEC9FE09F
:1056300008C08091CC019091CD010E94C51281ECEF
:105640009FE00E94B608C1E061C184E49BE00E9433
:10565000B6088DE29BE00E94B60885E19BE00E94BF
:10566000B6088DEF9AE00E94B60883EE9AE00E9499
:10567000B6088CEC9AE00E94B6088CEA9AE00E9488
:10568000B60886E99AE00E94B60885E89AE00E948A
:10569000B6088DE69AE00E94B6088DE59AE00E9471
:1056A000B60883E49AE00E94B6088AE29AE00E9473
:1056B000B60881E19AE00E94B60888EF99E00E945E
:1056C000B6088FED99E00E94B6088EEB99E00E9433
:1056D000B6088CE999E00E94B60882E899E0B1CF5B
:1056E0008091BD01817F8E7F8093BD010E941C2728
:1056F0008CEA9FE00E94B60888EA9FE00E94B60804
:1057000081E08093CF019FCF0E94E1188FE89FE056
:105710000E94B6089FEF23ED80E391502040804027
:10572000E1F700C000000E9485228FE79FE089CF4B
:105730008091BD01C82FC17080FF09C08CE69FE039
:105740000E94B6088091BD01817F8E7F44C08AE5AA
:105750009FE00E94B6088091BD0181608093BD01E9
:1057600072CF8091BD0181FBCC27C0F991E0C927A0
:10577000C0FB81F98093BD01CC2319F081E49FE047
:1057800025C087E29FE05DCF8091BD0182FBCC27E1
:10579000C0F991E0C927C0FB82F98093BD01CC23F9
:1057A00019F08CE09FE012C080EF9EE04ACF80911C
:1057B000BD0183FBCC27C0F991E0C927C0FB83F969
:1057C0008093BD01CC2351F088ED9EE00E94B60885
:1057D0008091BD0181608093BD0198C08FEB9EE0F8
:1057E00030CF88EA9EE00E94B6088EE79EE00E94D5
:1057F000B60888E49EE00E94B60881E29EE00E941E
:10580000B6088BE99DE00E94B6088DE69DE019CFB1
:105810008091BF019091C001A091C101B091C201DE
:10582000BF93AF939F938F9389E59DE09F938F9351
:105830000E944F090F900F900F900F900F900F90B4
:1058400002CF83E49DE00E94B6080E94CF121F920F
:105850008F9389E29DE09F938F930E944F098091DF
:105860000B011F928F9382E19DE09F938F930E9483
:105870004F09809159011F928F938FEF9CE09F9366
:105880008F930E944F098DB79EB70C960FB6F89470
:105890009EBF0FBE8DBFD7CE0E94E118C0910C01F4
:1058A00081E0C827C0930C01CC2329F080EF9CE055
:1058B0000E94B6082BC080EE9CE0C3CE81E890E049
:1058C0000E942B139FEF21EE84E0915020408040F6
:1058D000E1F700C0000080E090E00E942B139FEFF2
:1058E00029E688E1915020408040E1F700C00000A7
:1058F000AACE80E003C08D5101C089530E944C297B
:10590000A2CE8EED9CE00E94B608C0E08C2FCF9115
:10591000089580E0089580E00895CF93C82F809186
:10592000CF018130A1F020F0823009F459C068C164
:1059300060E080E00E94340A882309F463C163E0D8
:1059400080E00E94340A882309F45CC10CC060E046
:1059500080E00E94340A882379F063E080E00E94AE
:10596000340A882349F08C2F0E94892C811135C07C
:105970008C2F0E948C2932C08C2F0E948B2C81117D
:105980002CC0C431F1F090F4CB30A1F0C03101F55E
:105990000E94282787EF98E00E94B60883EF98E0DE
:1059A0000E94B60882E08093CF0117C0C93249F047
:1059B000C83371F40E941C2784E299E00E94B60863
:1059C0000CC080E199E00E94B6081092CF011CC182
:1059D00081EF98E00E94B60817C181E0817016C17E
:1059E000C83228F5CE3108F0C0C0CB30A1F1D0F4D8
:1059F000C73009F0E8C08EE18093140182E3809300
:105A000013018AE08093120184E18093110188E000
:105A10008093100188E280930F0189E996E00E944B
:105A2000B608D6C0C33141F1C431C1F0CCC0CB34CB
:105A300009F4BEC028F4C93289F0C83361F0C3C08C
:105A4000C13509F4B3C0C23509F4AEC0CE3409F093
:105A5000BAC06AE0B3C00E942827BAC01092CE0133
:105A60008CEC96E00E94B60888EC96E00E94B6089E
:105A700081E08093CF01CAC08CE696E00E94B60810
:105A800087E596E00E94B608809114011F928F93DB
:105A900084E596E09F938F930E944F0982E596E0FC
:105AA0000E94B6088DE396E00E94B608809113012B
:105AB0001F928F938AE396E09F938F930E944F09E2
:105AC00088E396E00E94B60886E296E00E94B60857
:105AD000809112011F928F9383E296E09F938F93A0
